:020000040800F2
:10000000E80C002069020008710200087302000871
:10001000750200087702000879020008000000005D
:100020000000000000000000000000007B0200084B
:100030007D020008000000007F020008311F000858
:10004000830200088302000883020008830200087C
:10005000830200088302000883020008830200086C
:10006000830200088302000883020008830200085C
:10007000830200088302000883020008830200084C
:1000800083020008830200088302000800000000C9
:1000900000000000000000000000000083020008D3
:1000A000830200088302000883020008830200081C
:1000B000830200088302000883020008830200080C
:1000C00083020008830200088302000883020008FC
:1000D00083020008A11F00088302000883020008B1
:1000E0008302000883020008830200080000000069
:1000F0000000000000000000000000000000000000
:1001000000000000000000000000000000000000EF
:1001100000000000000000008302000883020008C5
:1001200000F002F800F090F80AA090E8000C824479
:100130008344AAF10107DA4501D100F085F8AFF256
:10014000090EBAE80F0013F0010F18BFFB1A43F0B5
:10015000010318475087000070870000103A24BF41
:1001600078C878C1FAD8520724BF30C830C144BF1C
:1001700004680C607047000000230024002500265E
:10018000103A28BF78C1FBD8520728BF30C148BFFA
:100190000B6070476E2900F0C782702900F02F8134
:1001A000662903F00281652903F0FF80672903F0C7
:1001B000FC806129AFF3008003681B0A28BF41F06F
:1001C0008001692900F0A080642900F09D807529D4
:1001D00000F09A806F2900F0AC85782900F0FB8050
:1001E000E92900F04785E42900F04485F52900F06D
:1001F0004185EF2900F0A985F82900F0FA8003680D
:10020000DB0928BF41F08001632900F05F86732974
:1002100000F06486E32900F06F86F32900F074860D
:10022000002070471FB500F0BDFD04000020002134
:1002300002F05AFE401C60600020002102F03EFEE9
:10024000E0601FBD10B510BD00F01CFF1146FFF7A8
:10025000E9FF02F063FB00F043FF03B4FFF7F2FF96
:1002600003BC00F087FF00000948804709480047A9
:10027000FEE7FEE7FEE7FEE7FEE7FEE7FEE7FEE756
:10028000FEE7FEE704480549054A064B70470000B3
:10029000411F000821010008E8060020E80C0020AA
:1002A000E8080020E80800207CB51D4616460C0032
:1002B000009001D02044401E074B7B442A466946EB
:1002C0000190304600F057FC05461CB100206946FD
:1002D00000F064FC28467CBDE90800000FB41CB5A2
:1002E000084B06AA7B4469460090059800F043FC41
:1002F00004460020694600F051FC20461CBC5DF815
:1003000014FB0000B50800002DE9F041064600246A
:1003100010687529314616A510D000F071F9002833
:1003200002DA404213A507E031688A0701D512A519
:1003300002E0490704D511A5012401E000F069F9A4
:1003400000210A2206F1240709E0B0FBF2FCB0FB11
:10035000F2F302FB1C00303078541846491C002888
:10036000F3D123462A463046BDE8F04100F083B978
:10037000000000002D0000002B0000002000000005
:10038000F0B40D460188090502D5214C7C4402E0F9
:100390001F4C7C440E34002100F1240608E002F0DA
:1003A0000F071209E75D42EA03721B097754491CE3
:1003B00052EA0307F3D102780023120704D5702D07
:1003C00006D009B1022311342246F0BC00F053B923
:1003D00001231034F8E770B504460D462146106835
:1003E00000F017F9024629462046BDE87040002378
:1003F000C6E7D21D22F00703D3E90023C0E7036854
:10040000126843F0200303600823C3610023B7E7A9
:100410003C8400002DE9F05F894604464FF0000A55
:10042000DFF874B1FB44C0F820A02046E16888479B
:10043000002874D0252806D0D4E901219047206AED
:10044000401C2062F1E700265F462046E1688847AD
:100450002028054607DB312D05D2781910F8200C2D
:1004600008B10643F1E7B00701D526F00406C4F849
:100470001CA00027C4F818A02A2D09D0284601F096
:100480004BFF38B304EB8708303DC8F8185019E02B
:1004900059F8041B204604EB87029161E168884704
:1004A000012F054618D1E069002820DA26F0200641
:1004B0001DE0D8F8180000EB800005EB4000303854
:1004C000C8F818002046E1688847054601F024FF77
:1004D0000028EED1012F0AD02E2D08D12046E16848
:1004E00088477F1C0546022F46F02006C4DBA06922
:1004F000002803DA404246F00106A061F00701D06F
:1005000026F010066C2D0BD0682D09D04C2D39D05B
:100510006A2D35D0742D35D07A2D33D016E038E0E1
:10052000E1682F4620468847B842054609D16C2F1E
:1005300026D04FF48060E168064320468847054690
:1005400004E06C2F1AD04FF4807006430DB3A5F170
:100550004100192802D8203546F400664A4629464B
:10056000204626604E46FFF715FE80B101280BD0CD
:10057000F61D26F0070000F1080956E74020E4E7E1
:100580008020D8E70020D6E706F104094DE7284689
:1005900052E7206ABDE8F09FCC83000002F0FF0321
:1005A00043EA032242EA024200F0DCBB7047704794
:1005B000704770B5044685690068C10601D53026CC
:1005C00000E02026C00707D070BDD4E901213046E5
:1005D0009047206A401C20626D1EF6D570BD70B534
:1005E000044685690078C00707D170BDD4E90121B0
:1005F00020209047206A401C20626D1EF6D570BDF9
:1006000009684A0501D540B27047C905FCD500B25A
:10061000704709684A0501D5C0B27047C905FCD5C5
:1006200080B2704770B50C460546012A05D028787F
:10063000800600D5EA69002302E0012305E05B1C87
:10064000934202D2E05C0028F9D1A869E618C01AEA
:10065000A861286A184428622846FFF7AAFF04E028
:10066000D5E9012114F8010B9047B442F8D328468C
:10067000FFF7B5FF70BD2DE9F0470D46994692464C
:10068000044600F124080168880604D5E06921F0D9
:100690001001216000E00120A84201DD471B00E0BD
:1006A0000027A1697A1902EB0900081AA0612078D5
:1006B000C00602D42046FFF77CFF002608E0D4E9FC
:1006C00001211AF806009047206A401C761C20621F
:1006D0004E45F4DB2078C0060AD52046FFF769FFB7
:1006E00006E0D4E9012130209047206A401C2062B6
:1006F000381EA7F10107F4DC07E0D4E9012118F85E
:1007000005009047206A401C2062281EA5F10105C3
:10071000F3DC2046FFF763FF2078000602D50220B5
:10072000BDE8F0870120FBE711680268006A530505
:1007300001D508700AE0D30501D5088006E013064C
:1007400003D5C217C1E9000200E00860012070472C
:1007500070472DE9FF4F0C461E464FF0FF378BB018
:10076000D2E90001DDF860800A908A46C1F30A559B
:1007700005B93D46002108464FF00000BAF1000FD0
:1007800000F4400005DA00EB80004FF4400101EA7C
:1007900050004FEA9059B9F1010F00DDB9460A98AF
:1007A00050EA4A000ED044F61050A5F2FF354543FA
:1007B0002F14B8F1000F1ED07542291E1EDDC9F19D
:1007C00000021CE0B8F1010F4FF0000001D0302111
:1007D00003E0F24305E02154401CB042FBDB30460D
:1007E0000022002121540B99C1F80880C1E90020A2
:1007F0000FB0BDE8F08FBD1B6D1CDEE74A4600DA86
:10080000694206A800F084FB06AB93E8070003AB3F
:1008100083E8070050460A9900F0B3FC8DE8070012
:10082000A0F500501F3800900398002D09DD42F21A
:100830001F014A46084403A90390684600F012FFCE
:1008400008E0A0F500504A461F3803A90390684607
:1008500000F01CFF8DE807000004000C03D04FF0EF
:10086000FF30410800E01046B8F1000F03D000222D
:10087000009215461EE0751E05D400F097FA30323E
:1008800062556D1EF9D5B3460122084302D00022FD
:100890007F1C04E02078302801D100227F1E002A2E
:1008A000099786D01DE0112D07DA00F07FFA30326B
:1008B00062556D1C50EA0102F5D1084302D0009840
:1008C000C8B10EE00021681E05E0235C625C635441
:1008D0002254401E491C8142F7DBAB46A81B401E38
:1008E0000990002004F80B000B98099AC0F80880C2
:1008F000C0E9002B7CE711264FF0000859E72DE9ED
:10090000F04F88460446D21D22F0070191B0D1E98C
:100910000001CDE90A0101F0EBFC02460B98C00F83
:1009200001D02D2007E02068810701D52B2002E0AF
:10093000202101EAC000032A099001D0072A05DB23
:1009400003464146204600F077FA0BE12078800606
:1009500001D5E06900E00620B8F1650F814606D0B8
:10096000B8F1660F18D0B8F1670F70D131E00020F0
:10097000B9F1110F009001DB112301E009F101032E
:100980000AAA01A90CA8FFF7E4FEDDE90C70002615
:1009900009F10105834647E001204B4600904FF0E6
:1009A00000470AAA01A90CA8FFF7D3FEDDE90DB0A4
:1009B0000C995D46002610B909F101000D18B9EB3C
:1009C000050003D4C0F1FF3609F10105A5EB0900CC
:1009D0002BE0B9F1010F01DA4FF001090020B9F164
:1009E000110F0090484601DD112300E003460AAADA
:1009F00001A90CA8FFF7ADFEDDE90C704D460026FD
:100A00008346207800070AD4AB4500DA5D4601A88A
:100A1000012D04DD411911F8011C302907D04F4583
:100A200002DA17F1040F04DA012082460FE06D1E8E
:100A3000EEE7002F02DCED1B3E4403E0781CA842E9
:100A400000DD7D1CB81B00F1010A4FF00047207843
:100A5000000703D4AA4501DB4FF0FF3A0021B7F1AC
:100A6000004F0DF143088DF8431024D002202B23B2
:100A7000002F01DA7F422D230A21021EA0F101007E
:100A800000DC5FB197FBF1FC97FBF1F201FB1C7CF2
:100A900017460CF1300C08F801CDEEE7A8F1010083
:100AA00003702188090501D5452100E06521A0F1E9
:100AB000010800F8011C09980FA9A1EB0807FF1D08
:100AC00000B10120411901EBEA70A1693844081A0C
:100AD000401EA0612078C00602D42046FFF769FDC1
:100AE000099828B1D4E901219047206A401C20626E
:100AF0002078C00622D52046FFF75BFD1EE0002EC1
:100B000004DBB34502DD01A8805D00E03020D4E9BC
:100B100001219047206A401C2062761CAAF1010046
:100B20005FEA000A0AD100F03DF9C0680168405C44
:100B3000D4E901219047206A401C2062281EA5F1BB
:100B40000105DCDC07E0D4E9012118F8010B90472E
:100B5000206A401C2062381EA7F10107F3DC204602
:100B6000FFF73DFD032011B043E6000001694A1C78
:100B700002610878704700B58FB0CDE901310021DE
:100B8000059105497944CDE9031011466846FFF700
:100B900041FC0FB000BD0000E5FFFFFF0A6802F84E
:100BA000010B0A607047D1E900239A4202D2531C1C
:100BB0000B601070704700002DE9FF5F15468A46F4
:100BC0000446DFF8AC80F8440027D8E900103E4620
:100BD000CDE9001010E03AF816106A4602A800F0BD
:100BE00005FA411C07D02178890603D5E269391836
:100BF00091420DD80744761C2078800602D5E06922
:100C0000B84205DDAE42E6DB3AF816000028E2D134
:100C1000A069C01BA0612046FFF7CBFCD8E90010FB
:100C2000CDE90010002017E03AF818106A4602A833
:100C300000F0DCF9B0F1FF3F81460BD000250DF14B
:100C4000080B05E0D4E901211BF8050090476D1C55
:100C50004D45F7D308F10100B0428046E4DB206A3D
:100C6000384420622046FFF7BAFCBDE8FF9F000031
:100C70003E7C00002DE9F0418046D21D22F00702A3
:100C80000025D2E90002F52915A614D0011E72F143
:100C9000000106DA0023D0EB030063EB020211A689
:100CA00008E0D8F800108B0701D50FA602E049072D
:100CB00001D50EA601251146002408F1240704E001
:100CC00000F074F830323A55641C50EA0102F7D152
:100CD0002B46324621464046BDE8F041FFF7CBBCEB
:100CE000000000002D0000002B000000200000008C
:100CF00030B4002100F1240408E002F00705D20816
:100D0000303542EA4372DB086554491C52EA030558
:100D1000F3D10468002310A2250707D5A40600D448
:100D200021B1C46901230DA2641EC46130BCFFF768
:100D3000A2BC10B5044621461068FFF76AFC0246C3
:100D40002046BDE810400023D2E7D21D22F0070163
:100D5000D1E90023CCE700000000000030000000D3
:100D60004FF000020429C0F0128010F0030C00F0D4
:100D70005F81CCF1040CBCF1020F18BF00F8012B0D
:100D8000A8BF20F8022BA1EB0C0100F051B95FEADB
:100D9000C17C24BF00F8012B00F8012B48BF00F8EC
:100DA000012B704700487047A406002030B5B0F111
:100DB0000A024FEA900E71F100034EEA817EB0EB19
:100DC0000E0061EB91014FEA101E4EEA017E10EB1E
:100DD0000E0041EB11114FEA102E4EEA016E10EB9E
:100DE0000E0041EB11214FEA104E4EEA014E10EB7E
:100DF0000E0041EB1141401841F100014FEAD000D3
:100E000040EA41704FEAD10110EB80054FEA8104BE
:100E100044EA907444EB01046D1944EB0404521B42
:100E2000A3414FF0000348BF0A3200D530BD401C3B
:100E300041F1000130BD00002DE9F0411F4604469C
:100E400003260168072A01F4006004DB08B116A537
:100E500005E016A503E008B115A500E015A521F0F1
:100E600010002060A069C01EA0610FB1401EA061EB
:100E70002046FFF79EFB4FB1D4E901213846904749
:100E8000206A401C2062C01C206206E0206AFAE74B
:100E9000D4E9012115F8010B9047761EF8D22046BF
:100EA000FFF79DFBBDE8F0814E414E006E616E0084
:100EB000494E4600696E660010B5436913B1AFF341
:100EC000008001E0FFF7AEFB012010BD127800F1B9
:100ED00024010A7000224A700122EDE711684FF0E8
:100EE000FF32E9E710B5436913B1AFF3008001E0C9
:100EF000FFF762FE012010BD128800F124018284F8
:100F00000022C2840122EDE711684FF0FF32E9E7C9
:100F10002DE9F047814616468AB0334878440DC81B
:100F20008DE80D0030487844801C03AC0DC884E87F
:100F30000D0041F69B300844372190FBF1F290FB05
:100F4000F1F5A5F1800501FB12041B3C02D56442BA
:100F5000012000E00020DFF890A080460027FA443E
:100F6000AAF1BE0A0DE0E00709D03246684607EB59
:100F700047010AEB810100F089FB8DE8070064104E
:100F80007F1C002CEFD1184F7F44AC3F18E0E807DE
:100F900014D007EB04100DF1180A90E80E008AE84F
:100FA0000E00C068F04201D198190890324606A997
:100FB00003A800F06BFB03AB83E807006D10641C13
:100FC000002DE4D132466946B8F1000F03A802D0E3
:100FD00000F048FB01E000F059FBC9E90001C9F845
:100FE00008200AB0BDE8F0876C79000070B516469D
:100FF0000C46054600F06CF8036893F801010128DF
:1010000006D0FF2C0FD8185D68B101202C7070BD80
:10101000D3F807013246214603F20713034428465A
:10102000BDE8704018474FF0FF3070BD4FF0000230
:1010300000B5134694469646203922BFA0E80C50CE
:10104000A0E80C50B1F12001BFF4F7AF090728BFA9
:10105000A0E80C5048BF0CC05DF804EB890028BF25
:1010600040F8042B08BF704748BF20F8022B11F04E
:10107000804F18BF00F8012B7047000000487047F0
:10108000840600207546FFF7F9FFAE460500694665
:10109000534620F00700854618B020B5FFF7F2F858
:1010A000BDE820404FF000064FF000074FF0000869
:1010B0004FF0000B21F00701AC46ACE8C009ACE8EA
:1010C000C009ACE8C009ACE8C0098D467047000013
:1010D00010B5FFF767FE001D10BD00BF0D1E00001C
:1010E00010B50446AFF300802046BDE81040FFF77E
:1010F000B4B800004FF0013C50F8042B51F8043B09
:101100009A4221D1A2EB0C03934313EACC1317D1DB
:1011100050F8042B51F8043B9A4215D1A2EB0C0372
:10112000934313EACC130BD150F8042B51F8043B32
:101130009A4209D1A2EB0C03934313EACC13DBD000
:101140004FF00000704700BFD01A01BAB1FA81F128
:1011500001F0180122FA01F0CB40C1F12001DBB20D
:10116000C0B2C01A2CFA01F3D11A914311EAC3118B
:10117000E6D1704701491820ABBEFEE72600020009
:1011800070475FEA400C08BF91F0000F4FEA8C23D4
:101190004FEAC12243EA51514FEA1C5018BF00F5F3
:1011A000F0404FEA300018BF41F000415FEA6C5C4C
:1011B00000F02980BCF1FF3F08BF40F0804070473D
:1011C000130C06BF12044FF0100C4FF0000C130E5E
:1011D00004BF12020CF1080C130F04BF12010CF132
:1011E000040C930F04BF92000CF1020CD30F04BF48
:1011F00052000CF1010C11464FF00002A0F11F004B
:10120000A0EB0C00704711F0004F08BF704731F0A1
:1012100000413FF4D5AF0B0C06BF09044FF0100C92
:101220004FF0000C0B0E04BF09020CF1080C0B0F61
:1012300004BF09010CF1040C8B0F04BF89000CF1F1
:10124000020CCB0F04BF49000CF1010CCCF12003C0
:10125000A0EB0C0022FA03F302FA0CF241EA0301BC
:1012600000F10100704720F07F4C80EA030023F07A
:101270007F47ACEB070303F57C5300F0004003F11C
:10128000FF032DE980494FEA154B09B44FEA144397
:1012900025EA0B4E24EA03480FF2042606EB132737
:1012A00049083E785FEA320203FB0667C7F500078C
:1012B00007FB06F64FEA54374FEAD64606F1020618
:1012C00007FB066CCCF1005C4FEA1C472CEA074C8C
:1012D00007FB06F40CFB06F504EB15464FEA9616E1
:1012E00034BF00204FF000404FEAD13706FB07FC27
:1012F0004FEA1C4C0CFB0BF7D21B03FB0CF761EB0A
:1013000007010CFB0EF7B0EB074072EB17420CFB2A
:1013100008F734BFA2EB0742B2EB074261EB17417B
:101320004FEA0C444FEA910706FB07FC4FEA1C4CBE
:101330000CFB0BF7B0EBC74072EB573203FB0CF71B
:1013400034BFA2EBC742B2EBC74261EB57310CFB93
:101350000EF7B0EBC70072EB57720CFB08F734BF07
:10136000A2EBC702B2EBC70261EB5771039F4FEAD2
:10137000816141EA921104EBCC044FEAD1374FEA84
:10138000826206FB07FC42EA90124FEA80604FEA55
:101390001C4C0CFB0BF7D21B03FB0CF761EB07019A
:1013A0000CFB0EF7B0EB074072EB17420CFB08F793
:1013B00034BFA2EB0742B2EB074261EB17414FEAA1
:1013C0008C554FEA910704EB9C2406FB07FC4FEA7F
:1013D0001C4C0CFB0BF7B0EBC74072EB573203FB16
:1013E0000CF734BFA2EBC742B2EBC74261EB5731F7
:1013F0000CFB0EF7B0EBC70072EB57720CFB08F753
:1014000034BFA2EBC702B2EBC70261EB577115EB19
:101410004C254FEA816141EA92114FEA82624FEA1C
:10142000D13742EA901206FB07FC44F100044FEA70
:1014300080604FEA1C4C0CFB0BF7D21B03FB0CF734
:1014400061EB07010CFB0EF7B0EB074072EB1742A4
:101450000CFB08F734BFA2EB0742B2EB074261EB8B
:10146000174115EB1C154FEA813141EA92414FEAD1
:10147000823242EA90424FEA80304FEA0C7644F1E1
:10148000000448EA03434EEA0B484FF0000EB2EB6B
:10149000080C71EB030724BF624639464EEB0E0E73
:1014A0004FF0000B0018524149414BEB0B0BB2EBD4
:1014B000080C71EB03077BF1000B24BF6246394631
:1014C0004EEB0E0E4FF0000B0018524149414BEB12
:1014D0000B0BB2EB080C71EB03077BF1000B24BF85
:1014E000624639464EEB0E0E51EA020718BF46F02F
:1014F000010616EB0E7655F1000254F1000103D5FA
:10150000BDE88901BDE80088BDE88901BDE8004863
:10151000B619524141EB0101A3F1010370478080EC
:101520007F7E7D7C7B7A797877767675747372713D
:1015300071706F6E6E6D6C6C6B6A6A6968686766F5
:1015400066656464636362616160605F5F5E5E5D87
:101550005D5C5C5B5B5A5A595958585757565655FB
:1015600055555454535352525251515050504F4F5D
:101570004F4E4E4D4D4D4C4C4C4B4B4B4A4A4A49AD
:1015800049494848484747474746464645454544F0
:101590004444444343434342424242414141002B7D
:1015A00026D4770021D01CB54FEA370703B44FF09B
:1015B00010004FF010014FF000000FBCBDE81040CC
:1015C0000BF1010BBBF1010F08BF5FEA170722BF48
:1015D00012F1010211F101014FF0004143F100034A
:1015E00000F0004043EA00007047F9D35708DAE7FB
:1015F00046EA064613F1400F4FEA16461FDD13F187
:10160000200FDFBF16430A46002120335B42C8D0BB
:10161000C3F1200746EA064602FA07F74FEA1646E4
:1016200046EA0706C3F1200722FA03F201FA07F798
:1016300021FA03F14FF0000342EA0702B1E746EA5C
:10164000020646EA06464FEA164646EA0106BCBFCF
:1016500046EA0646360C4FF000034FF000024FF00A
:1016600000019EE72DE9C048934630B491E8380068
:1016700007C831EA400C48BF34EA430C03D5FFF7F2
:10168000F2FDFFF78CFFF0BCBDE800882DE9C048F3
:10169000934630B491E8380007C810F0804F08BF77
:1016A00013F0804F03D100F005F8FFF778FFF0BC8E
:1016B000BDE8008820F07F4780EA030023F07F4CDC
:1016C00007EB0C03A3F57C5300F00040A3F1FE03ED
:1016D00092F0000F00F0B38095F0000F00F07780DB
:1016E0002DE901494FEA11404FEA144621EA00482A
:1016F00000FB06FC24EA064708FB06F607FB08F891
:1017000000FB07F718EB06484CEB164C4FEA124B60
:1017100018EB07484FEA15464CEB174022EA0B4EF0
:101720000BFB06FC25EA06470EFB06F607FB0EFE42
:101730000BFB07F71EEB064E4CEB164C4FF000066A
:101740001EEB074E4CEB174B18EB0B0840F100005B
:1017500018EB0E0B58EB000840F100008F1A4FF009
:1017600000013CBFC943661B14BFB5EB040C00214C
:101770003CBFC943F61B4FEA17444EEA8E0E27EAD8
:1017800004454FEA1C4704FB07622CEA074C05FBA3
:1017900007F70CFB05F604FB0CFC16EB074642EBC7
:1017A000174216EB0C4642EB1C421BEB060658EBAD
:1017B0000202414146EA9E0601D5BDE80189B619FB
:1017C000524141EB0101A3F10103BDE801894FEA58
:1017D00014454FEA114724EA054621EA074C05FB68
:1017E00007F406FB07F70CFB06F105FB0CFC11EBFD
:1017F000074144EB17444FEA124711EB0C4144EB0D
:101800001C4422EA074C05FB07F206FB07F70CFB1A
:1018100006F605FB0CFC16EB074642EB174216EBEF
:101820000C4642EB1C456A1854F1000148BF704752
:10183000B619524141EB0101A3F10103704795F044
:10184000000F37D04FEA11424FEA144721EA02460F
:1018500024EA074C02FB07F106FB07F70CFB06F432
:1018600002FB0CFC14EB074441EB17414FEA154710
:1018700014EB0C4441EB1C4125EA074C02FB07F535
:1018800006FB07F70CFB06F602FB0CFC16EB074603
:1018900045EB174516EB0C4645EB1C42121951F16E
:1018A000000148BF7047B619524141EB0101A3F155
:1018B000010370474FEA14454FEA114724EA0546F1
:1018C00021EA074C05FB07F106FB07F70CFB06F2C4
:1018D0004FF0000605FB0CFC12EB074241EB1741F1
:1018E00012EB0C4251EB1C4148BF7047921841EB80
:1018F0000101A3F10103704703484FF0E021486163
:10190000886107200861704740190100044A116886
:1019100000BF034A1268521A8242FAD3704700008D
:101920002800002008B508490968084AB1FBF2F10F
:1019300041430D22B1FBF2F1009100BF00994A1E14
:1019400000920029FAD108BD0000002080FC0A00A6
:1019500010B54021802001F0F7F910BD16488069CC
:1019600040F01000144988610846806940F0040086
:1019700088611248406820F44000104948600846D9
:10198000406840F4401048600D48006820F4406012
:101990000B4908600846006840F440700860081D64
:1019A000006820F44020091D08600846006840F4E3
:1019B00040300860704700000010024000100140F5
:1019C000000801407CB52948006800F00100D8B942
:1019D0006420FFF79BFF2548006800F0010098B9DC
:1019E0002348C06840F400502149C860142000F02A
:1019F00029FD204908601E48C06820F400501C4999
:101A0000C86000201C4908601A481C4902680A2066
:101A100000F0EAFC1849086019491748006801F00D
:101A20000DFB064601F07CFA044622460B4615A142
:101A30001748FEF753FC1649164800F0B1FB104951
:101A40000D48006801F0FAFA064601F069FA12A39F
:101A50000122CDE900012321084600F01BFF00F020
:101A60000FFF0020044908607CBD00000808014009
:101A70000010014024000020200000200000054349
:101A800000007A4457252E33664B670D0A0000008C
:101A90005400002000380140252E33664B6720207B
:101AA0000000000010B50A2000F0CCFC04490860DA
:101AB00000200860142000F0C5FC0149086010BD3A
:101AC000240000202A48806940F0080028498861E5
:101AD0000846806940F0010088612648406840F06F
:101AE0000200244948602448006840F00C00224964
:101AF00008600846006840F0020008600846006878
:101B000040F0C00008600846006840F0200008600F
:101B10001748C06940F400101549C861174800888B
:101B200040F40040154908800846008820F4004031
:101B30000880081D008820F03F00091D0880084625
:101B4000008840F0240008800C481C3000886FF3A7
:101B50000B000A491C3108805A2008802520091DE5
:101B600008800648008840F001000449088070475A
:101B70000010024000000140040C014000540040ED
:101B80002B48006840F480302949086000BF28488D
:101B9000006800F400300028F9D0122025490860C0
:101BA0002348406822494860084640684860084623
:101BB000406840F4806048600846406820F4701037
:101BC00048600846406820F4803048600846406815
:101BD00020F4003048600846406840F48030486097
:101BE0000846406848600846406840F4E010486095
:101BF0000846006840F08070086000BF0C4800682C
:101C000000F000700028F9D00948406820F0030077
:101C1000074948600846406840F00200486000BF3D
:101C20000348406800F00C000828F9D17047000014
:101C3000001002400020024070B5054620240DB17E
:101C400044F0040422460121034801F095F81E20C7
:101C5000FFF768FE70BD0000003800402DE9F0413C
:101C6000064688460024002500BF29E000212046C2
:101C700000F042F800250CE02A462146304600F0EC
:101C800057F807463A4600210F4801F075F8681CDE
:101C9000C5B2102DF0DB00250EE004F12000C1B22A
:101CA0002A46304600F044F807463A4600210648E6
:101CB00001F062F8681CC5B2102DEEDB601CC4B2E6
:101CC000202CD3DBBDE8F0810038004070B506461B
:101CD0000D4620240EB144F004040DB144F002047A
:101CE00022460121034801F047F81E20FFF71AFEA3
:101CF00070BD00000038004070B505460E468024D7
:101D000005F07F00044322460121084801F034F821
:101D1000802406F00F00044322460121034801F00D
:101D20002BF81E20FFF7FEFD70BD000000380040BC
:101D3000F0B503461446002700220025C810DFF83E
:101D400054C09CF800C000FB0CF606EBC40086B241
:101D500008464FEAE17C01EB5C7C4FEAEC0CA1EB1E
:101D6000CC0C0CF0FF050120A840C5B200BF0CE070
:101D7000B018185C284030B1C2F1070C012000FAFD
:101D80000CF03843C7B2501CC2B2082AF0DB384608
:101D9000F0BD00005000002010B50120FFF74CFFFF
:101DA00001210846FFF792FF10BD10B500F002F8C0
:101DB00010BD00000CB50020019000903348006871
:101DC00040F480303149086000BF3048006800F4BA
:101DD000003000900198401C0190009818B90198BB
:101DE000B0F5A06FF1D12948006800F4003010B1BF
:101DF0000120009001E0002000900098012843D1CC
:101E00002348006840F01000214908600846006837
:101E100020F0030008600846006840F002000860F7
:101E20001A484068194948600846406848600846B2
:101E3000406840F4806048600846406820F47C10A8
:101E400048600846406840F4E8104860084600686A
:101E500040F08070086000BF0C48006800F000701F
:101E60000028F9D00948406820F00300074948607D
:101E70000846406840F00200486000BF03484068E0
:101E800000F00C000828F9D10CBD00000010024041
:101E90000020024010B50B4600BF048904F0030483
:101EA000002CFAD0048904F08004002CF5D1002124
:101EB0000EE05C5C848100BF048904F00304002C04
:101EC000FAD0048904F08004002CF5D14C1CA1B296
:101ED0009142EEDB10BD024600BF108900F0030006
:101EE0000028FAD0108900F080000028F5D19181F7
:101EF00000BF108900F003000028FAD0108900F01C
:101F000080000028F5D19089C0B27047018841F463
:101F10008071018000BF818A01F001010029FAD09F
:101F2000818A7047018841F4007101807047000088
:101F300002480068401C01490860704728000020E2
:101F400010B51348006840F00100114908600846C8
:101F50004068104908400E494860084600680E492C
:101F600008400B4908600846006820F4802008609B
:101F70000846406820F4FE0048604FF41F00886067
:101F8000FFF713FF4FF000600449086010BD000028
:101F9000001002400000FFF8FFFFF6FE08ED00E031
:101FA0002048008800F0200000283AD01D48008812
:101FB00020F020001B490880081D0088302808D127
:101FC0001948006940F0005017490861012017497D
:101FD00008701448001D0088312802D102201349DE
:101FE00008701048001D0088322802D103200F49D4
:101FF00008700C48001D0088332802D104200B49CA
:1020000008700848001D0088342802D105200749BF
:1020100008700448001D0088352802D106200349B5
:102020000870704700380140001001401400002083
:1020300070B50446072C5CD2DFE804F004051E29C5
:102040004041420055E02C48C06840F400502A4905
:10205000C860142000F0F6F9284908602648C068D6
:1020600020F400502449C86000202549086025A1BB
:10207000264800F095F83CE0204825A10268284851
:10208000FEF72CF92649214800F08AF831E04FF498
:102090007A71142000F048F9224908600846006867
:1020A00000F03EFF05462A460B461FA11C48FEF7DE
:1020B00015F91B49154800F073F81AE019E018E00B
:1020C0001EA1124800F06CF81FA1104800F068F83B
:1020D00020A10E4800F064F822A10C4800F060F83E
:1020E00025A10A4800F05CF826A1084800F058F83D
:1020F00000BF00BF70BD00000010014024000020A0
:10210000200000203C303E0D0A0000000038014055
:102110004144435F5A65726F3A202569200D0A00D9
:10212000540000201C00002041444320436F666699
:102130003A20252E33660D0A0000000048656C70B9
:102140002121210D0A00000030202D205A65726FD8
:102150000D0A000031202D204144432D7A65726F15
:102160000D0A000032202D20476574204144432091
:10217000436F66660D0A000034202D202E2E2E0D92
:102180000A00000035202D2048656C700D0A000003
:1021900000BF028802F04002002AFAD08180704716
:1021A00030B505460B46002406E02046621CD4B23A
:1021B000195C2846FFF7ECFF185D0028F5D130BD0B
:1021C0002848806940F48040264988610846806933
:1021D00040F0080088610846806940F0010088618D
:1021E0002148406840F004001F4948601F480068CB
:1021F00040F000601D4908600846006840F04070EB
:1022000008600846006840F08040086008460068A2
:1022100020F04050086040F2712015490880081DE8
:10222000008840F00800091D08800846008840F03A
:10223000040008800846008840F4005008800846E2
:10224000008840F020000880252000F01F020121B6
:1022500091404209920002F1E022C2F8001100BF51
:10226000704700000010024000000140000C0140D7
:102270000838014012B1012A0AD104E0002303EB1F
:102280004103038204E0012303EB4103038200BF07
:1022900000BF00BF838A03F00203002BFAD0838AB9
:1022A000038B704700BF828A02F08002002AFAD0B6
:1022B0000182828A028842F480620280028B704727
:1022C00000BF828A02F08002002AFAD00182828A4C
:1022D000028B704700BF828A02F08002002AFAD087
:1022E000018200BF828A02F00402002AFAD07047FD
:1022F000490050EAC12018BF04204A0D18BF40F021
:10230000010040F2FF72B2EB515F08BF40F00200E3
:10231000012808BF0520704730380A2801D2012063
:1023200070470020704700002DE9F04705460C4635
:1023300000260027284600F085F806461048C068A9
:1023400040F400500E49C86041F28830FFF7DEFAD1
:10235000284600F077F807460948C06820F4005086
:102360000749C860204600F043FF8046B81B00F0D4
:1023700027FF8146414600F061FEBDE8F08700007E
:102380000010014070B50025002600BF134800680A
:1023900000F008000028F9D04FF480100F490831F0
:1023A0000860002407E0FF210D48FFF794FD0D4968
:1023B0000855601CC4B2032CF5DB10200749083116
:1023C000086008480578407840EA05250548807887
:1023D00040EA05252D022E12304670BD0808014046
:1023E000003001402C0000202DE9F04704468846CB
:1023F0001546002600270AE0FFF7C4FF824600F0DA
:10240000DFFE8146314600F0B7FD06467F1CA7423D
:10241000F2D3204600F0ECFE81464946304600F0FB
:102420000DFE0646284600F0CBFE8146314600F000
:102430003DFF06464146304600F000FE0646304667
:10244000BDE8F08770B504460025002607E0FFF7D9
:1024500099FF05440520FFF759FA701CC6B2A64241
:10246000F5DB95FBF4F5284670BD000010B500F0D3
:1024700027F84FF48010104908606420FFF746FAEF
:1024800006210E48FFF727FD6420FFF73FFA1020D2
:10249000094908600A21002000F08AF8242101205F
:1024A00000F086F81021022000F082F800210320BD
:1024B00000F07EF810BD000010080140003001401F
:1024C0003848806940F00500364988613648006820
:1024D00020F48000344908600846006840F4000099
:1024E00008600846006840F440100860084600682C
:1024F00020F0006008600846006840F080600860D6
:102500000846006820F0804008600846006840F0F7
:10251000004008600846006840F0405008600846E7
:10252000006820F4402008600846006840F440300D
:1025300008601D480C30006840F010001A490C314A
:1025400008601848806940F480501649886117482F
:10255000008840F02800154908800846008820F0CF
:10256000020008800846008840F001000880084604
:10257000008820F4006008800846008820F0800071
:1025800008800846008840F44070088008460088AB
:1025900040F0040008800846008840F040000880B1
:1025A0007047000000100240000801400030014068
:1025B00070B504460D464FF480100B4908600520A5
:1025C000FFF7A4F9402040EA8400C1B20748FFF7B2
:1025D00082FC29460548FFF77EFC0520FFF796F9A7
:1025E00010200149086070BD100801400030014012
:1025F0002DE9FF5F0746884691460024002548469E
:10260000039900F07FF90646304600F077F98246DC
:10261000304600F06FF98346B61CB9F1000F1CD1AB
:1026200000BF17E0002511E0335DC5F1070E4FF044
:10263000010C0CFA0EFC03EA0C0208EB040319B2BD
:102640007B1918B200F092F8681CC5B25545EBDB57
:10265000601CC4B25C45E5DB32E000242EE00025BE
:1026600028E0082D11DA16F81430C5F1070E4FF0E6
:10267000010C0CFA0EFC03EA0C0208EB040319B27D
:102680007B1918B200F072F812E0012303EB440347
:10269000F35CC5F10F0E4FF0010C0CFA0EFC03EACF
:1026A0000C0208EB040319B27B1918B200F05EF8B3
:1026B000681CC5B25545D4DB601CC4B25C45CEDB9A
:1026C000504604B0BDE8F09F2DE9FC4F04460D468E
:1026D00016461F46301B002801DB014600E0414240
:1026E0000FFA81F8781B002801DB014600E0414227
:1026F0000FFA81F9B44201DA012001E04FF0FF3016
:102700000190BD4201DA012001E04FF0FF3000905E
:10271000A8EB09000FFA80FA01223946304600F092
:1027200025F81CE001222946204600F01FF84FEA58
:102730004A000FFA80FBC9F10000834506DDAAEBD1
:1027400009000FFA80FA0198204404B2C34506DA62
:102750000AEB08000FFA80FA0098284405B2B44248
:10276000E0D1BD42DED1BDE8FC8F000070B503466C
:102770001446802B05DA402903DA002B01DB0029FF
:1027800000DA70BDC1F3CF00A1EBC005EAB24FF68D
:10279000FF7505EAC010C518A8B23CB1084D2D5C04
:1027A000012696403543064E355406E0044D2E5C16
:1027B00001259540AE43024D2E5400BFE1E70000D5
:1027C00084020020F0B504460D4616461F463B46DF
:1027D000224629462046FFF777FF3B4632462946E8
:1027E0003046FFF771FF2B46324629462046FFF759
:1027F0006BFF3B46324639462046FFF765FFF0BD8A
:102800002DE9F05F05460E4617461C464FF00008BE
:10281000A9464FF0080A22E0207820B10A2805D006
:102820000D2809D106E04FF0010816E006EB0A007A
:1028300006B212E04D4610E023783A46314628466B
:10284000FFF7D6FE284405B22178384600F05AF842
:10285000834600F04FF8824600BF00BF641CB8F109
:10286000000FD9D0BDE8F09F10B5044622464FF4C2
:1028700080610248FDF792FE10BD00008402002036
:1028800010B54FF480610248FFF7E8F910BD000071
:10289000840200200FB4F0B59BB004460D461646E6
:1028A00024A80190642102A8019B239AFDF7FCFC57
:1028B000C7B20020019002AB324629462046FFF7FE
:1028C0009FFF1BB0F0BC5DF814FB0000014601EB5C
:1028D0000110024A02EB400070470000CC6500087E
:1028E000014601EB8100024A02EB40007047000004
:1028F000CC5B00080146491C0878704701460878FF
:102900007047000070B504460D46034850F8241087
:102910002846884770BD0000C45B000808B5FFF773
:102920002FF9FEF7E9FFFFF719F8FFF749FCFFF76A
:10293000C9F8FFF79BFDFFF70BF8C820FEF7E6FF8D
:1029400000F0C4F80021022000F024F901232248FD
:1029500006C822A000F0D4F900F022F90020FFF709
:1029600083FF00201FA30246322100900A20FFF7B8
:1029700091FFFFF785FF4FF47A70FEF7C7FF002045
:10298000FFF772FF3A237A2205210846FFF71AFF64
:102990003D237D2202210846FFF714FF1B237A22E4
:1029A00019460520FFF790FE00200CA30122082104
:1029B00000901E20FFF76EFFFFF762FFFFF772F82F
:1029C00008E000200C490870FEF7FCFF0A48007878
:1029D000FFF72EFBF5E7000038000020414453319B
:1029E0003232300041445331323230204C6F616416
:1029F0002043656C6C00000014000020F0B5034615
:102A00001446822B01DA202900DBF0BD254800792D
:102A100020B10CB9012000E000200446012C1FD198
:102A20000846CD1701EB5575ED1005EB851503EB49
:102A300045051D4E755D0A46CE1701EB5676F6101C
:102A4000A1EBC6070126BE403543CE1701EB5676F3
:102A5000F61006EB861603EB4606134FBD551EE037
:102A6000CD1701EB5575ED1005EB851503EB45050D
:102A70000D4E755D0A46CE1701EB5676F610A1EBAA
:102A8000C6070126BE40B5430846CE1701EB567671
:102A9000F61006EB861603EB4606034FBD5500BF46
:102AA000B3E70000300000207C0000200146002039
:102AB00006E009B9002200E0FF22034B1A54401C33
:102AC000B0F5027FF5D370477C00002010B500F010
:102AD0005FF86420FEF71AFFAE2000F0D5F8D5208D
:102AE00000F0D2F8802000F0CFF8A82000F0CCF859
:102AF0001F2000F0C9F8D32000F0C6F8402000F0F5
:102B0000C3F88D2000F0C0F8142000F0BDF820209C
:102B100000F0BAF8002000F0B7F8A12000F0B4F8F7
:102B2000C82000F0B1F8DA2000F0AEF8022000F082
:102B3000ABF8812000F0A8F88F2000F0A5F8CF2096
:102B400000F0A2F8D92000F09FF8F12000F09CF8E6
:102B5000D82000F099F8402000F096F8A42000F06A
:102B600093F8A62000F090F82E2000F08DF8AF200A
:102B700000F08AF80020FFF799FF00F011F800201C
:102B80000249088048800120487110BD30000020B3
:102B900070470000014A10805180704730000020CB
:102BA00010B5002413E004F1B001C8B200F06CF8D5
:102BB000002000F069F8102000F066F80549822234
:102BC00002FB0410114600F077F8601CC4B2082C18
:102BD000E9DB10BD7C0000202DE9FF4107461E46C1
:102BE000284800889DF804100844822806DA254801
:102BF00040889DF805100844202803DB002004B01D
:102C0000BDE8F081002430E0A7F120009DF8051018
:102C100000FB0140029931F81080002520E008FAFD
:102C200005F000F4004058B1164A92782244D1B21F
:102C3000144A12782A44D0B23246FFF7DFFE0EE083
:102C40000EB9012300E000231A460E4B9B78234463
:102C5000D9B20C4B1B782B44D8B2FFF7CFFE6D1CBA
:102C60009DF80400A842DAD8641C9DF80500A04233
:102C7000CAD8044800889DF8041008440149088017
:102C80003846BCE73000002010B504460948FFF77D
:102C90003DF900223C210748FFF7ECFA00210548E6
:102CA000FFF718FB21460348FFF70AFB0148FFF72F
:102CB00039F910BD0054004070B505460E460F4866
:102CC000FFF724F900223C210C48FFF7D3FA4021FA
:102CD0000A48FFF7FFFA002404E0295D0748FFF7E0
:102CE000E1FA641CB442F8D30448008820F4806000
:102CF000024908800846FFF715F970BD00540040EE
:102D00003FB504461D460CE020782B46DDE9011254
:102D1000FFF762FF2178884202D0207804B030BDEE
:102D2000641C20780028EFD12078F7E710B5012245
:102D30001146044800F020F84FF4A070FEF7F2FDB1
:102D400010BD00000038004070B505460C4608482C
:102D500005700848047000F03FF86420FEF7D6FDC7
:102D60000020FEF769FFFFF717F8FFF7DFFF70BDE0
:102D70005000002051000020F8B506460D461446CC
:102D8000F820009025B99DF8000040F00200009066
:102D90001048006840F480700E49086001226946BE
:102DA0003046FFF777F804F0F00000900122694602
:102DB0003046FFF76FF82007000E009001226946A9
:102DC0003046FFF767F80348006820F48070014937
:102DD0000860F8BD0C0801403448806940F00D00DF
:102DE000324988613248006820F480003049086028
:102DF0000846006840F4000008600846006840F497
:102E0000401008600846006820F00060086008462E
:102E1000006840F0806008600846006820F080404C
:102E200008600846006840F00040086008460068F6
:102E300040F0815008601F48006820F00C001D49D8
:102E400008600846006840F0030008601748C06941
:102E500040F480401549C8611748008840F03000B0
:102E6000154908800846008820F0020008800846BE
:102E7000008820F0010008800846008820F40060E7
:102E800008800846008820F08000088008460088F6
:102E900040F4407008800846008840F00400088034
:102EA0000846008840F0400008807047001002404B
:102EB000040C0140040801400038004010B500290E
:102EC0000AD00878002807D005487844FEF712F9A0
:102ED000002801D0002010BD0248784410BD000039
:102EE000FA590000F259000010B500290AD00878FC
:102EF000002807D005487844FEF7FCF8002801D0E8
:102F0000002010BD0248784410BD0000EA590000BE
:102F1000E25900000808A0F500114FEA310170479E
:102F200043004FEAD30C4FEA3C0C43401FBF40071D
:102F30000CF1605113F0FE4F70471CF0006F03D18D
:102F400000200CF0004170470CF0004343EA507041
:102F500010B540EACC0000F05EF900BF000000921E
:102F60004FEA0001FFF7D6BF4FF000414FF00000DD
:102F7000A1F500217047000090EA010F48BF81F0E1
:102F8000004100F1A481421A3CBF801A89184FEA1F
:102F9000D0524FF07F4C1CEA410FA2EBD15318BF27
:102FA0009CEA026F00F03B804FF0004C4CEA00209E
:102FB0004CEA012121FA03FC10EB0C0C1ED202F1A9
:102FC000FF325FEA1C2040EBC25038BF70471CF054
:102FD0007F0F4FEA400C18BFBCF17F4F38BF7047DE
:102FE000C3F12003994008BF20F00100BCF17F4FDE
:102FF00038BF7047A0F1C04000F053B94FEA3C0021
:10300000000A40EBC25028BF1CF0FF0F4FEA400CF3
:10301000E6D018BFBCF17F4F38BF7047EAE79CEAA3
:10302000026F05D010EA5C0F08BF00F00040704747
:1030300010B500F0F0F800BF64FBBE3E4FF47F0C0B
:103040001CEAD0121EBF1CEAD11392EA0C0F93EABD
:103050000C0F00F0858090EA010F48BF42F48072A7
:1030600040F4000C41F400002CF07F4120F07F4040
:1030700000B58142A2EB03020FF2081CACEB504EEC
:10308000C0F100009EF800E04FEA4E0E00FB0EFC7F
:1030900038BF49004FEA2C1C02F5FA020CFB0EF374
:1030A0004FEACE1E4FEA112C4FEAC1210EEB635EB0
:1030B00042EB22420EFB0CFC4FEA1C5300FB0311B7
:1030C0004FEA112C4FEA01310EFB0CFC4FEADC4CAD
:1030D00000FB0C11C14228BF09184CEB03335DF80B
:1030E00004EB10EB410143EBC250B2F57C0F38BF4B
:1030F000704729D512F0F00F1CBF00F1C04000F05E
:1031000000407047008182838485868788898B8C04
:103110008D8E8F919293959697999A9C9D9FA0A240
:10312000A3A5A7A8AAACAEB0B2B3B5B7B9BCBEC090
:10313000C2C5C7C9CCCED1D4D7D9DCDFE2E6E9EC31
:10314000F0F3F7FAFE0000004FEA400C0CF1807C2F
:10315000BCF17E4F28BF7047B0F1C04000F0A1B86D
:1031600090EA010F0CEAD11348BF42F48072624525
:1031700038BF634507D213F47F0F16D080EA0100F1
:1031800000F00040704710B500F045F8097EFC3EA5
:1031900000F005B880EA010000F00040704780EAC6
:1031A000010000F0004000F07CB812F47F0F04BF73
:1031B0000248704780EA010000F073B80000C07F49
:1031C00010F0004148BF4042B0FA80F310FA03F219
:1031D000C3F19D030BD051EAC35101EB12205306FA
:1031E00038BF704700F1010008BF20F001007047B0
:1031F000B0FA80F310FA03F2C3F19D030AD0D905A7
:1032000001EB1220530638BF704700F1010008BFE0
:1032100020F0010070470EF1020E2EF0030E5EF852
:10322000044B244204D44FEA4102B2F17F4F11D83B
:103230004FEA4003B3F17F4F0CD80ED14FEAD07C58
:10324000B2F17F4F0CEB4C0C0CF1020C08BF4CEBB5
:10325000D17C04E04FF0080C01E04FEAD17C0CEB8C
:103260004C0324FA03F404F00704B4F1040C06D26E
:103270000EEB840CBDE810404CF0010C6047DFE819
:103280000CF0070802024FF00040A0F5800010BDCE
:103290000846420018BFD2F1807288BF00F000409B
:1032A00010BDFF2141EAD050C005704780F00040BA
:1032B00090EA010F7FF567AE81F0004100F007B89A
:1032C00090EA010F48BF81F000413FF55CAE421A21
:1032D00004D882F00042A0EB020011444FEAD05221
:1032E0004FF07F4C1CEA410FA2EBD15318BF9CEA70
:1032F000026F4AD04FF0004C4CEA00204CEA01210A
:1033000021FA03FCB0EB0C0C0FD412F0FE0F36D0F8
:103310005FEA4C001DD5001240EBC25038BF704729
:103320001CF03F0F18BF70470BE0A2F101025FEAEB
:103330001C2040EBC25038BF70471CF07F0F18BFF5
:103340007047C3F12003994014BF401E20F00100D4
:10335000704780084FEA122308BF7047B0FA80FC1C
:10336000A2EB0C02CCF1280C60FA0CF093EA122FBD
:1033700004BF00EBC25070474FEAC3707047130A96
:103380005FEADC1008BF7047F6E79CEA026F04D0E2
:1033900010EA5C0F08BF0020704710B5FFF73BFF35
:1033A00040DFF63E81F000407047FDF7A8BA00000C
:1033B000000000000000000000000000000000000D
:1033C000000000100010001000100010001000009D
:1033D0000010000000000028002800280000000065
:1033E0000000000000000000000000240024007C19
:1033F00000240048007C004800480000000000381D
:1034000000540050003800140054005400380010DC
:103410000000002000540058003000280054001420
:1034200000080000000000100028002800100034F0
:103430000048004800340000000000100010001098
:103440000000000000000000000000000000000874
:10345000001000200020002000200020002000108C
:1034600000080020001000080008000800080008FC
:103470000008001000200010003800100028000094
:10348000000000000000000000000000000000102C
:103490000010007C00100010000000000000000080
:1034A00000000000000000000000000000100010FC
:1034B00000100000000000000000000000380000C4
:1034C00000000000000000000000000000000000FC
:1034D00000000000001000000000000800080010BC
:1034E0000010001000100020002000000000003834
:1034F00000440044005400440044004400380000EC
:1035000000000010003000500010001000100010EB
:1035100000100000000000380044004400040008CF
:1035200000100020007C000000000038004400046F
:1035300000180004000400440038000000000008E7
:103540000018002800280048007C0008000800003F
:103550000000007C004000400078000400040044AB
:1035600000380000000000380044004000780044AB
:1035700000440044003800000000007C0004000803
:103580000010001000200020002000000000003883
:103590000044004400380044004400440038000067
:1035A00000000038004400440044003C0004004493
:1035B00000380000000000000000001000000000C3
:1035C00000000000001000000000000000000000EB
:1035D00000100000000000000010001000100000AB
:1035E0000000000C003000400030000C0000000023
:1035F0000000000000000000007C0000007C0000D3
:10360000000000000000000000000060001800043E
:1036100000180060000000000000003800440004B2
:10362000000800100010000000100000000000382A
:103630000044004C0054005C004000400038000092
:10364000000000100028002800280028007C00440A
:10365000004400000000007800440044007800446A
:10366000004400440078000000000038004400409E
:10367000004000400040004400380000000000709E
:10368000004800440044004400440048007000002A
:103690000000007C00400040007C004000400040F2
:1036A000007C00000000007C0040004000780040EA
:1036B000004000400040000000000038004400408E
:1036C0000040005C0044004400380000000000445A
:1036D00000440044007C00440044004400440000D6
:1036E0000000003800100010001000100010001042
:1036F000003800000000000400040004000400047E
:10370000000400440038000000000044004800505D
:1037100000600050004800480044000000000040E5
:10372000004000400040004000400040007C00009D
:1037300000000044006C006C00540044004400444D
:103740000044000000000044006400640054005481
:10375000004C004C004400000000003800440044CD
:103760000044004400440044003800000000007899
:103770000044004400440078004000400040000045
:103780000000003800440044004400440044005459
:103790000038000400000078004400440044007831
:1037A0000048004800440000000000380044004089
:1037B0000030000800040044003800000000007CD5
:1037C0000010001000100010001000100010000089
:1037D000000000440044004400440044004400440D
:1037E0000038000000000044004400440028002885
:1037F00000280010001000000000004400440054A5
:1038000000540054006C0028002800000000004410
:1038100000280028001000100028002800440000A4
:103820000000004400440028002800100010001090
:10383000001000000000007C0004000800100010D0
:1038400000200040007C0000000000180010001064
:1038500000100010001000100010001000180020D0
:1038600000200010001000100010000800080000E8
:1038700000000030001000100010001000100010B8
:103880000010001000300010002800280044000044
:103890000000000000000000000000000000000028
:1038A00000000000000000000000000000FE0020FA
:1038B00000100000000000000000000000000000F8
:1038C00000000000000000380044003C0044004CB0
:1038D0000034000000000040004000580064004434
:1038E00000440064005800000000000000000038A0
:1038F0000044004000400044003800000000000484
:1039000000040034004C00440044004C003400002B
:1039100000000000000000380044007C004000442B
:10392000003800000000000C0010007C00100010A7
:103930000010001000100000000000000000003423
:10394000004C00440044004C003400040078004067
:10395000004000580064004400440044004400005B
:103960000000001000000070001000100010001097
:103970000010000000000010000000700010001097
:10398000001000100010001000E00040004000484F
:10399000005000600050004800440000000000702B
:1039A00000100010001000100010001000100000A7
:1039B000000000000000007800540054005400543F
:1039C00000540000000000000000005800640044A3
:1039D00000440044004400000000000000000038E3
:1039E000004400440044004400380000000000008F
:1039F0000000005800640044004400640058004087
:103A00000040000000000034004C00440044004C22
:103A1000003400040004000000000058006400406E
:103A2000004000400040000000000000000000389E
:103A3000004400300008004400380000000000206E
:103A40000020007800200020002000200018000046
:103A50000000000000000044004400440044004C0A
:103A60000034000000000000000000440044002872
:103A70000028002800100000000000000000005492
:103A800000540054006C00280028000000000000D2
:103A9000000000440028001000100028004400002E
:103AA000000000000000004400440028002800102E
:103AB00000100010006000000000007C00080010F2
:103AC00000200040007C00000000001800100010E2
:103AD000001000200020001000100010001800103E
:103AE0000010001000100010001000100010001056
:103AF0000010003000100010001000080008001036
:103B00000010001000300000000000000074004CA5
:103B100000000000000000000000000000000000A5
:103B20000000000000000000000000000000000095
:103B30000000000000000000000000000000000085
:103B4000000C000C000C000C000C000C000C000C15
:103B5000000C000C000C0000000C000C0000000029
:103B600000000000001B001B001B001B001B0000CE
:103B70000000000000000000000000000000000045
:103B800000000000000000008019801980198019D1
:103B9000C07FC07F80190033C07FC07F00330033F7
:103BA000003300330000000000000000001E003F52
:103BB000807580650074003C001E000780058065EC
:103BC00080658075003F001E0004000400000000B6
:103BD000007000D840D8C0D880D900730006000C0F
:103BE000801BC036C066C046C006800300000000CF
:103BF00000000000001E003F003300330033001EB1
:103C0000000CC03CC066806380618063C03E801C45
:103C10000000000000000000000C000C000C000C74
:103C2000000C000000000000000000000000000088
:103C30000000000000000000000080000001000300
:103C4000000600060004000C000C000C000C000C28
:103C5000000C0004000600060003000180000020A4
:103C600000100018000C000C0004000600060006FE
:103C70000006000600060004000C000C00180010EE
:103C800000200000000C002D003F001E003300004B
:103C90000000000000000000000000000000000024
:103CA000000000000000000000000000000C000CFC
:103CB000000C000CC0FFC0FF000C000C000C000C3E
:103CC00000000000000000000000000000000000F4
:103CD00000000000000000000000000000000000E4
:103CE00000000000000C000C0004000400080000AC
:103CF00000000000000000000000000000000000C4
:103D0000001E001E00000000000000000000000077
:103D100000000000000000000000000000000000A3
:103D2000000000000000000000000000000C000C7B
:103D30000000000000000000000300030003000674
:103D4000000600060006000C000C000C000C001819
:103D5000001800180000000000000000001E003FD6
:103D60000033806180618061806D806D80618061E1
:103D700080610033003F001E0000000000000000D2
:103D80000006000E001E0036002600060006000693
:103D900000060006000600060006000600000000FF
:103DA00000000000001E003F807380618061800180
:103DB00000030006000C001800300060807F807F48
:103DC0000000000000000000001C003E00630063D3
:103DD0000003000E000E00038001800180618073EB
:103DE000003F001E00000000000000000006000E62
:103DF000000E001E001E0016003600360066807F92
:103E0000807F0006000600060000000000000000A1
:103E1000007F007F006000600060006E007F8063B4
:103E20008001800180618073003F001E000000005F
:103E300000000000001E003F803380610060006EC3
:103E4000007F80738061806180618033003F001E4D
:103E50000000000000000000807F807F80010003E0
:103E6000000300060006000C000C000C00080018FF
:103E7000001800180000000000000000001E003FB5
:103E80008063806180610021001E003F806180614D
:103E900080618061003F001E000000000000000003
:103EA000001E003F00738061806180618073803FED
:103EB000801D800180610073003F001E0000000033
:103EC000000000000000000000000000000C000CDA
:103ED000000000000000000000000000000C000CCA
:103EE00000000000000000000000000000000000D2
:103EF0000000000C000C00000000000000000000AA
:103F0000000C000C00040004000800000000000089
:103F1000000080008003000E003800600038000EB2
:103F2000800380000000000000000000000000008E
:103F30000000000000000000807F807F0000000083
:103F4000807F807F00000000000000000000000073
:103F50000000000000000000000000400070001C95
:103F6000000780010007001C0070004000000000F6
:103F70000000000000000000001F803FC071C06012
:103F8000C000C00180030007000E000C000C000000
:103F9000000C000C0000000000000000001E003FAC
:103FA000803180718063806F806D806D806F8067ED
:103FB00000600032003E001C000000000000000015
:103FC000000E000E001B001B001B001B8031803107
:103FD000803F803F8031C060C060C0600000000052
:103FE00000000000007C007E00630063006300634B
:103FF000007E007E0063806180618063007F007EC0
:104000000000000000000000001E003F80318061C1
:1040100000600060006000600060006080618031CE
:10402000003F001E0000000000000000007C007F38
:1040300000638063806180618061806180618061F4
:1040400000630063007E007C0000000000000000B0
:10405000807F807F0060006000600060007F007FE4
:104060000060006000600060807F807F00000000D2
:1040700000000000807F807F0060006000600060C2
:10408000007F007F006000600060006000600060F2
:104090000000000000000000001E003F8031806131
:1040A00000600060006080638063806180618031B7
:1040B000803F001E00000000000000008061806161
:1040C0008061806180618061807F807F80618061AC
:1040D000806180618061806100000000000000005C
:1040E000003F003F000C000C000C000C000C000C0A
:1040F000000C000C000C000C003F003F0000000012
:1041000000000000800180018001800180018001A9
:10411000800180018001806180618073003F001E0A
:104120000000000000000000C060806100630066C5
:104130000066006C0078007C0066006600638061A9
:104140008061C060000000000000000000600060AE
:10415000006000600060006000600060006000605F
:1041600000600060807F807F000000000000000091
:10417000C071C071C07BC07AC06AC06AC06EC064C2
:10418000C060C060C060C060C060C060000000006F
:104190000000000080718071807980798079806D65
:1041A000806D806D806580678067806780638063D5
:1041B0000000000000000000001E003F003380618E
:1041C0008061806180618061806180618061003395
:1041D000003F001E0000000000000000007E007F85
:1041E00080638061806180618063007F007E006009
:1041F000006000600060006000000000000000003F
:10420000001E003F003380618061806180618061B9
:104210008061806580670033803F401E00000000A1
:1042200000000000007E007F806380618061806309
:10423000007F007E00660063006380618061C06073
:104240000000000000000000000E001F80318031DF
:1042500000300038001E00078003806180618031DB
:10426000003F001E0000000000000000C0FFC0FF73
:10427000000C000C000C000C000C000C000C000CDE
:10428000000C000C000C000C0000000000000000FE
:104290008061806180618061806180618061806116
:1042A0008061806180618073003F001E000000001B
:1042B00000000000C060C060C0608031803180318B
:1042C000001B001B001B001B000E000E000E000454
:1042D0000000000000000000C0C0C0C0C0C0C0C0DE
:1042E000C0C0C0CC804C804C805E805280528073B5
:1042F000806180610000000000000000C0C080609C
:1043000080610033003B001E000C000C001E001FEB
:10431000003B80718061C0C0000000000000000010
:10432000C0C08061806100330033001E001E000C9D
:10433000000C000C000C000C000C000C0000000035
:1043400000000000803F803F800100030003000662
:10435000000C000C0018001800300060807F807F87
:10436000000000000000000F000F000C000C000C0B
:10437000000C000C000C000C000C000C000C000CDD
:10438000000C000C000C000F000F000000180018BB
:104390000018000C000C000C000C000600060006C3
:1043A0000006000300030003000000000000001EE0
:1043B000001E0006000600060006000600060006B5
:1043C0000006000600060006000600060006001EA5
:1043D000001E0000000C000C001E00120033003311
:1043E000806180610000000000000000000000000B
:1043F00000000000000000000000000000000000BD
:1044000000000000000000000000000000000000AC
:10441000000000000000E0FF00000000003800186D
:10442000000C000000000000000000000000000080
:10443000000000000000000000000000000000007C
:104440000000000000000000001F803F806180012C
:10445000801F803F80618063807FC0380000000043
:10446000000000000060006000600060006E007FDF
:10447000807380618061806180618073007F006EE5
:10448000000000000000000000000000000000002C
:10449000001E003F80738061006000608061807357
:1044A000003F001E000000000000000080018001AD
:1044B00080018001801D803F807380618061806108
:1044C00080618073803F801D0000000000000000BC
:1044D0000000000000000000001E003F007380612B
:1044E000807F807F00608071003F001E0000000020
:1044F00000000000C007C00F000C000C807F807F10
:10450000000C000C000C000C000C000C000C000C4B
:104510000000000000000000000000000000801DFE
:10452000803F807380618061806180618073803FA3
:10453000801D80018063007F003E000000600060FD
:1045400000600060006F807F8071806180618061A9
:1045500080618061806180610000000000000000D7
:104560000006000600000000003E003E00060006B7
:104570000006000600060006000600060000000017
:1045800000000006000600000000003E003E00069D
:1045900000060006000600060006000600060006EB
:1045A0000046007E003C000000600060006000608B
:1045B000806100630066006C007C0076006300632D
:1045C0008061C0600000000000000000003E003E6E
:1045D00000060006000600060006000600060006AB
:1045E00000060006000600060000000000000000B3
:1045F000000000000000000080DDC0FFC0CEC0CC85
:10460000C0CCC0CCC0CCC0CCC0CCC0CC0000000062
:10461000000000000000000000000000006F807F2C
:104620008071806180618061806180618061806172
:10463000000000000000000000000000000000007A
:10464000001E003F807380618061806180618073A3
:10465000003F001E000000000000000000000000FD
:104660000000006E007F80738061806180618061E6
:104670008073007F006E00600060006000600000DA
:10468000000000000000801D803F80738061806119
:10469000806180618073803F801D80018001800186
:1046A0008001000000000000000000000067803F63
:1046B0000039003000300030003000300030003071
:1046C00000000000000000000000000000000000EA
:1046D000001E803F80610060007F803F800180611C
:1046E000007F001E00000000000000000000000825
:1046F00000180018007F007F00180018001800182C
:1047000000180018801F800F00000000000000004B
:104710000000000000000000806180618061806115
:104720008061806180618063807F803D0000000047
:10473000000000000000000000000000C0608031A8
:1047400080318031001B001B001B000E000E000694
:104750000000000000000000000000000000000059
:1047600080DD80DD80DD0055005500550077007745
:1047700000220022000000000000000000000000F5
:1047800000000000806100330033001E000C000CAC
:10479000001E0033003380610000000000000000B4
:1047A0000000000000008061806180310033003330
:1047B000001B001B001B000E000E000E001C007CE6
:1047C000007000000000000000000000C07FC07FFB
:1047D000800100030006000C00180030C07FC07F7D
:1047E00000000000000080038007000600060006AD
:1047F00000060006000E001C001C000E000600064D
:10480000000600060006800780030006000600067A
:104810000006000600060006000600060006000668
:104820000006000600060006000600060006003826
:10483000003C000C000C000C000C000C000E0007EB
:104840000007000E000C000C000C000C000C003CDB
:104850000038000000000000000000000000000020
:104860008038807F0047000000000000000000004A
:104870000000000000000000000000000000000038
:104880000000000000000000000000000000000028
:104890000000000000000000000000000000000018
:1048A00000000000000000000000E003E003E0035F
:1048B000E003E003E003E003E003C003C003C00142
:1048C000C001C001C001C001000000000000E00301
:1048D000E003E003000000000000000000003C1EB8
:1048E0003C1E3C1E3C1E3C1E3C1E3C1E00000000AC
:1048F00000000000000000000000000000000000B8
:1049000000000000000000000000000000000000A7
:104910000000CE01CE03DE039E039C039C07FF3FF5
:10492000FF7F3807380F780F780F780EFFFFFFFFF3
:10493000F01EF01CE01CE03CE03DE039000000000F
:10494000000000000000FC03FE0FEE1FE01EE01E52
:10495000E01EE01EE01FE00FE007F003FC01FE0197
:10496000FE01FE01FE01FE01FE01FE3DFC3FF00FD7
:10497000E001E001000000000000033E07F78FE7C0
:104980008EE79EE3BCE3B8E7F8E7F0F7E03FC0014D
:10499000FF03FF07F307F30FF31EF33CF338F3783D
:1049A0007FF03FE000000000000000000000E00792
:1049B000F80F780F781F781F781F780FF00FE00F2F
:1049C000801FC37FC3FBE7F3F7F1F7F0FFF07FF041
:1049D0003EF87F7CFF3FEF1F00000000000000005A
:1049E0000000E003E003E003E003E003C003C001D4
:1049F00000000000000000000000000000000000B7
:104A000000000000000000000000000000000000A6
:104A10000000000000003F007C00F001E001C00346
:104A2000C00780078007800F000F000F000F000FE6
:104A3000000F000F800F80078007C007C003E00150
:104A4000F0017C003F000F000000007E001FC00747
:104A5000C003E001F001F000F000F80078007800F9
:104A60007800780078007800F800F000F000F0019D
:104A7000E001C003C007001F007E00780000E003D3
:104A8000C003C001CE39FF3F7F3F20037003F8070A
:104A9000780F3C1F380600000000000000000000F6
:104AA0000000000000000000000000000000000006
:104AB0000000000000000000000000000000C00135
:104AC000C001C001C001C001C001C001FFFFFFFF64
:104AD000C001C001C001C001C001C0010000000050
:104AE00000000000000000000000000000000000C6
:104AF00000000000000000000000000000000000B6
:104B00000000000000000000E003E003E003E00319
:104B1000E001E001E001C0018003000000000000AE
:104B20000000000000000000000000000000000085
:104B3000FE3FFE3F000000000000000000000000FB
:104B40000000000000000000000000000000000065
:104B50000000000000000000000000000000000055
:104B60000000000000000000000000000000000045
:104B7000E003E003E003E0030000000000000000A9
:104B800000000F000F001E001E003C003C007800DB
:104B90007800F000F000E001E001C003C0038007EE
:104BA0008007000F000F001E001E003C003C007834
:104BB000007800F00000F007F80F7C1F3E3E1E3C1E
:104BC0001F7C1F7C0F780F780F780F780F780F7885
:104BD0000F781F7C1F7C1E3C3E3E7C1FF80FF007A9
:104BE00000000000000000000000F000F007F03FAF
:104BF000F03FF001F001F001F001F001F001F001EF
:104C0000F001F001F001F001F001F001F001F0011C
:104C1000FF3FFF3F00000000000000000000E00F29
:104C2000F83F7C3C3C003E003E003E003C003C0027
:104C30007C00F800F001E003C0078007000F001EB1
:104C4000003E003CFE3FFE3F000000000000000070
:104C50000000F00FF81F7C1C3E003E003E003C00B0
:104C60003C00F800F00FF80F7C003E001E001E0014
:104C70001E001E003E007C1CF81FE01F000000000C
:104C80000000000000007800F800F800F801F803C8
:104C9000F807F807780F781E781E783C78787878CF
:104CA000FFFFFFFF78007800780078007800780038
:104CB00000000000000000000000FC1FFC1FFC1FA3
:104CC000001E001E001E001E001EE01FF81FFC003C
:104CD0007C003E003E001E003E003E003C007C1C6E
:104CE000F81FE01F00000000000000000000FC01B1
:104CF000FE078E0F001F001E003E003C003CF83DEA
:104D0000FC3F3E7F1F7E0F3C0F3C0F3C0F3C0F3E95
:104D10001F1E3E1FFC0FF0030000000000000000FB
:104D20000000FF3FFF3FFF3F0F001E001E003C0042
:104D300038007800F000F000E001E001C003C0039B
:104D40008007800F800F000F001F001F0000000071
:104D5000000000000000F807FC0F3E1F1E1E1E3E54
:104D60001E3E1E1E3C1FF80FF007F80FFC1E3E3EB5
:104D70001F3C1F7C0F7C0F7C1F3C3E3FFC1FF0073D
:104D800000000000000000000000F007F80F7C1E8B
:104D90003E3C1E3C1F7C1F7C1F7C1F7C1F3C3F3EFB
:104DA000FF1FEF071F001E001E003E003C00F838EA
:104DB000F03FE01F000000000000000000000000C5
:104DC00000000000000000000000E003E003E0033A
:104DD000E0030000000000000000000000000000F0
:104DE000E003E003E003E003000000000000000037
:104DF0000000000000000000000000000000E003D0
:104E0000E003E003E00300000000000000000000F9
:104E100000000000E003E003E003E003E001E00144
:104E2000E001C0038003000000000000000000005B
:104E3000000003000F003F00FC00F003C00F003F24
:104E400000FE003FC00FF003FC003F000F00030016
:104E50000000000000000000000000000000000052
:104E60000000000000000000000000000000FFFF44
:104E7000FFFF000000000000FFFFFFFF0000000038
:104E80000000000000000000000000000000000022
:104E90000000000000000000000000E000F8007EBC
:104EA000801FE007F8017E001F007E00F801E00788
:104EB000801F007E00F800E00000000000000000FD
:104EC0000000F01FFC3F3E381F381F381E001E0038
:104ED0003C007800F000E001C003C003C007C00739
:104EE000000000000000C007C007C007000000006D
:104EF000000000000000F803FE0F1E1F0F3E7F3C65
:104F0000FF78EF79C773C7F38FF38FF38FF39FF3B6
:104F10009FF3FF73FF7BF779003C1C1FFC0FF80326
:104F20000000000000000000000000000000000081
:104F3000E003E003F007F007F007780F780F7C0E2E
:104F40003C1E3C1E3E3CFE3FFF3F1F780F780FF09B
:104F500007F007F000000000000000000000000063
:104F600000000000F83FFC3F3E3C1E3C1E3C1E3C47
:104F70003E3C7C3CF03FF83F7E3C1F3C1F3C0F3CDE
:104F80000F3C1F3CFE3FF83F000000000000000007
:104F90000000000000000000FF01FF07871F003E27
:104FA000003C007C00780078007800780078007C75
:104FB000007C003E003F831FFF07FF010000000050
:104FC000000000000000000000000000F07FFC7FF7
:104FD0007E781F781F780F780F780F780F780F780A
:104FE0000F780F780F781F781E787E78F87FE07F33
:104FF00000000000000000000000000000000000B1
:10500000FF3FFF3F003E003E003E003E003E003EB0
:10501000FE3FFE3F003E003E003E003E003E003EA2
:10502000FF3FFF3F00000000000000000000000004
:1050300000000000FF1FFF1F001E001E001E001EBC
:10504000001E001EFF1FFF1F001E001E001E001E70
:10505000001E001E001E001E0000000000000000D8
:105060000000000000000000FE03FF0F871F003E4D
:10507000007C007C007800F800F87FF87FF80F785B
:105080000F7C0F7C0F3E8F1FFF0FFE030000000000
:105090000000000000000000000000001F7C1F7CDA
:1050A0001F7C1F7C1F7C1F7C1F7C1F7CFF7FFF7F62
:1050B0001F7C1F7C1F7C1F7C1F7C1F7C1F7C1F7C18
:1050C00000000000000000000000000000000000E0
:1050D000FF3FFF3FE003E003E003E003E003E00302
:1050E000E003E003E003E003E003E003E003E003A8
:1050F000FF3FFF3F00000000000000000000000034
:1051000000000000FC1FFC1F7C007C007C007C0079
:105110007C007C007C007C007C007C007C007800B3
:105120007800F838F03FC03F0000000000000000A9
:1051300000000000000000001F3C1E3C3C3C783C8E
:10514000F03CE03DE03FC03F803FC03FE03FF03DEE
:10515000F03C783C7C3C3E3C1F3C0F3C0000000097
:10516000000000000000000000000000003E003EC3
:10517000003E003E003E003E003E003E003E003E3F
:10518000003E003E003E003E003E003EFF3FFF3F2F
:10519000000000000000000000000000000000000F
:1051A0001FF81FFC1FFC3FFE3FFE3FFE7FFF77FF07
:1051B00077FFF7F7E7F7E7F3E7F3C7F307F007F051
:1051C00007F007F0000000000000000000000000F1
:1051D000000000000F7C0F7C0F7E0F7F0F7F8F7F02
:1051E0008F7FCF7FEF7BEF79FF79FF78FF787F7834
:1051F0003F783F781F781F78000000000000000013
:105200000000000000000000F007FC1F3E3E1F7C75
:105210000F780F780FF80FF80FF80FF80FF80FF856
:105220000F780F781F7C3E3EFC1FF0070000000047
:10523000000000000000000000000000FC3FFF3FF5
:105240001F3E0F3E0F3E0F3E0F3E1F3E3F3EFC3FB8
:10525000F03F003E003E003E003E003E003E003E6D
:10526000000000000000000000000000000000003E
:10527000F007FC1F3E3E1F7C0F780F780FF80FF8E9
:105280000FF80FF80FF80FF80F780F781F7C3E3EDD
:10529000FC1FF8077C003F000F0003000000000027
:1052A00000000000F03FFC3F7E3C3E3C1E3C1E3CAC
:1052B0003E3C3C3CFC3CF03FE03FF03DF83C7C3C5D
:1052C0003E3C1E3C1F3C0F3C000000000000000064
:1052D0000000000000000000FC07FE1F0E3E003C26
:1052E000003C003C003EC01FF80FFE037F001F0083
:1052F0000F000F001F203E3CFC3FF01F000000008D
:10530000000000000000000000000000FFFFFFFFA1
:10531000E003E003E003E003E003E003E003E00375
:10532000E003E003E003E003E003E003E003E00365
:10533000000000000000000000000000000000006D
:105340000F7C0F7C0F7C0F7C0F7C0F7C0F7C0F7C05
:105350000F7C0F7C0F7C0F7C0F7C1E3C1E3C3E3E66
:10536000FC1FF0070000000000000000000000002B
:105370000000000007F007F007F80F780F7C1E3CD4
:105380001E3C1E3E3C1E3C1F781F780FF80FF00796
:10539000F007F007E003E003000000000000000059
:1053A000000000000000000003E003F003F007F03D
:1053B000E7F3E7F3E7F3E773F77BF77FFF7F7F7FA1
:1053C0007F7F7E7F7E3F3E3E3E3E3E3E00000000B1
:1053D00000000000000000000000000007F80F7C43
:1053E0001E3E3E3E3C1FF80FF007E007E003E003DF
:1053F000F007F80F7C0F7C1E3E3C1F780F780FF0F3
:10540000000000000000000000000000000000009C
:1054100007F807780F7C1E3C1E3E3C1F780FF80FE4
:10542000F007E003E003E003E003E003E003E00350
:10543000E003E003000000000000000000000000A6
:1054400000000000FF7FFF7F0F001F003E007C0078
:10545000F800F000E001E003C007800F000F001E1D
:10546000003E007CFF7FFF7F000000000000000086
:105470000000FF07800780078007800780078007FC
:1054800080078007800780078007800780078007E4
:1054900080078007800780078007800780078007D4
:1054A000FF07FF07000000780078003C003C001E6A
:1054B000001E000F000F80078007C003C003E0013B
:1054C000E001F000F000780078003C003C001E0095
:1054D0001E000F000F0007000000F07FF000F0003A
:1054E000F000F000F000F000F000F000F000F0003C
:1054F000F000F000F000F000F000F000F000F0002C
:10550000F000F000F000F000F07FF07F0000C0003D
:10551000C001C001E003E003F007F0077807780F4F
:10552000380F3C1E3C1E1E3C1E3C0F380F7807787F
:10553000000000000000000000000000000000006B
:10554000000000000000000000000000000000005B
:10555000000000000000000000000000000000004B
:10556000000000000000000000000000FFFFFFFF3F
:10557000000000000000F00000000000000000003B
:10558000000000000000000000000000000000001B
:10559000000000000000000000000000000000000B
:1055A00000000000000000000000000000000000FB
:1055B000000000000000F80FFC3F7C3C3E003E0075
:1055C0003E00FE07FE1F3E3E3E7C3E783E7C7E7CDB
:1055D000FF3FCF1F00000000000000000000003C63
:1055E000003C003C003C003C003CF83DFE3F3E3FA0
:1055F0001F3E0F3C0F3C0F3C0F3C0F3C0F3C1F3C31
:105600001E3C3E3FFC3FF03B00000000000000005D
:105610000000000000000000000000000000FE0389
:10562000FF0F871F003E003E003C007C007C007C9A
:10563000003C003E003E871FFF0FFE0300000000FD
:105640000000000000001F001F001F001F001F00BF
:105650001F00FF07FF1F3F3E1F3C1F7C1F7C1F7C5E
:105660001F781F781F7C1F7C3F3C7F3EFF1FDF0F92
:10567000000000000000000000000000000000002A
:10568000000000000000F803FC0F3E1F1E3E1F3C00
:105690001F7CFF7FFF7F007C007C003C003E071FDB
:1056A000FF0FFE0300000000000000000000FF01EB
:1056B000E103C003C007C007C007FF7FFF7FC0072B
:1056C000C007C007C007C007C007C007C007C007A2
:1056D000C007C007C007C0070000000000000000AE
:1056E0000000000000000000000000000000EF07C4
:1056F000FF1F7F3E1F3C1F7C1F7C1F781F781F7879
:105700001F7C1F7C3F3C7F3EFF1FDF0F1E001E00E3
:105710001E007C38F83F003C003C003C003C003C54
:10572000003CFC3DFE3F9E3F1F3F1F3E1F3C1F3C79
:105730001F3C1F3C1F3C1F3C1F3C1F3C1F3C1F3C91
:1057400000000000000000000000F001F001000077
:10575000000000000000E07FE07FE001E001E001E8
:10576000E001E001E001E001E001E001E001E00131
:10577000E001E00100000000000000000000F8006F
:10578000F8000000000000000000F83FF83FF800BB
:10579000F800F800F800F800F800F800F800F80049
:1057A000F800F800F800F800F800F800F000F071D8
:1057B000E07F003C003C003C003C003C003C1F3CC7
:1057C0003E3C7C3CF83CF03DE03DC03FC03FE03F0C
:1057D000F03DF83C7C3C3E3C1F3C1F3C0000000080
:1057E000000000000000F07FF001F001F001F00186
:1057F000F001F001F001F001F001F001F001F00121
:10580000F001F001F001F001F001F001F001F00110
:105810000000000000000000000000000000000088
:105820000000000000009EF7FFFFFFFFFFFFE7FB07
:10583000E7F9C7F1C7F1C7F1C7F1C7F1C7F1C7F180
:10584000C7F1C7F1000000000000000000000000E8
:1058500000000000000000000000FC3DFE3F9E3FF5
:105860001F3F1F3E1F3C1F3C1F3C1F3C1F3C1F3C5B
:105870001F3C1F3C1F3C1F3C0000000000000000BC
:105880000000000000000000000000000000F00721
:10589000FC1F3E3E1F3C1F7C0F780F780F780F785F
:1058A0000F781F7C1F3C3E3EFC1FF00700000000ED
:1058B00000000000000000000000000000000000E8
:1058C0000000F83DFE3F3E3F1F3E0F3C0F3C0F3CAB
:1058D0000F3C0F3C0F3C1F3C1E3E3E3FFC3FF83F41
:1058E000003C003C003C003C003C0000000000008C
:1058F000000000000000EE07FE1F7E3E1E3C1E7CE6
:105900001E781E781E781E781E781E7C3E7C7E3E99
:10591000FE1FDE0F1E001E001E001E001E000000E7
:10592000000000000000000000007F1FFF1FE71FB5
:10593000C71F871F001F001F001F001F001F001F21
:10594000001F001F001F001F0000000000000000DB
:105950000000000000000000000000000000FC0744
:10596000FE1F0E1E003E003E003FE01FFC07FE0033
:105970003E001E001E003E3CFC3FF01F00000000E9
:105980000000000000000000000000008007800709
:105990008007FF7FFF7F80078007800780078007E1
:1059A00080078007800780078007C007FF03FF018B
:1059B00000000000000000000000000000000000E7
:1059C0000000000000001E3C1E3C1E3C1E3C1E3C15
:1059D0001E3C1E3C1E3C1E3C1E3C3E3C7E3CFE3E95
:1059E000FE1FDE0F000000000000000000000000AD
:1059F0000000000000000000000007F00F780F78A2
:105A00001E3C1E3C1E3E3C1E3C1E780F780FF00FC5
:105A1000F007F007E003E0030000000000000000D2
:105A2000000000000000000000000000000003F083
:105A3000E3F1E3F3E7F3F7F3F7F3F77F777F7F7FA4
:105A40007F7F7F7F3E3E3E3E3E3E3E3E000000006A
:105A50000000000000000000000000000000000046
:105A600000000F7C1E3E3C3E3C1FF80FF007F00785
:105A7000E003F007F807F80F7C1E3E3E1F3C1F783E
:105A80000000000000000000000000000000000016
:105A900000000000000007F80F780F7C1E3C1E3C41
:105AA0003C1E3C1E3C1F780FF80FF007F007E00388
:105AB000E003C003C003C0038007800F007F000025
:105AC00000000000000000000000FF3FFF3F1F003B
:105AD0003E007C00F800F001E003C007800F001FCB
